:020000040000FA
:10000000000082319A2A00348A012000911D992A29
:1000100091112400141C992A971F10281516992A4B
:100020002400941E98291419992A2F302000330592
:100030002000B0003008031982283008023A031962
:1000400098283008033A0319A0283008043A031905
:10005000B8283008053A0319C2283008063A0319AF
:10006000DC283008073A0319E6283008083A031953
:1000700000293008093A03190A2930080A3A0319F5
:10008000242930080B3A03192E293008203A031985
:1000900048293008213A03194D293008223A03191A
:1000A00052293008233A031956293008243A0319F3
:1000B0005B293008253A031961293008263A0319CB
:1000C00066293008273A03196A293008283A0319A3
:1000D0006F293008293A0319742930082A3A03197C
:1000E000792930082B3A03197D2930082C3A031955
:1000F000822930082E3A0319872930082F3A03192C
:100100008C299129200041082000B0002000C10A5C
:1001100020003008A03EB0000C300318013EB100B2
:1001200030088400310885002400110880009529DA
:100130000830FF002400110884319A248031952969
:10014000200041082000B0002000C10A2000300833
:100150000319B32820004208FF002400110884314D
:100160009A2480319529240011082000C200952985
:100170000130FE000830FF002400110883311A23EB
:1001800080319529200041082000B0002000C10ADC
:10019000200030080319D7280130FE002000420853
:1001A000FF002400110883311A238031952924008F
:1001B00011082000C20095290130FE000830FF0020
:1001C000240011088331F62380319529200041084D
:1001D0002000B0002000C10A200030080319FB28CD
:1001E0000130FE0020004208FF0024001108833186
:1001F000F62380319529240011082000C20095299A
:100200000030FE000830FF002400110883311A235B
:1002100081319529200041082000B0002000C10A4A
:100220002000300803191F290030FE00200042087A
:10023000FF002400110883311A23813195292400FD
:1002400011082000C20095290030FE000830FF0090
:10025000240011088331F6238131952920004108BB
:100260002000B0002000C10A2000300803194329F3
:100270000030FE0020004208FF00240011088331F6
:10028000F62381319529240011082000C200952908
:100290002400110821008C00952924001108220057
:1002A0008C009529240011088C0095292400110840
:1002B00020008C009529C0302400110421008D00FD
:1002C00095292400110822008D0095292400110889
:1002D0008D0095292400110820008D009529240007
:1002E000110821008E0095292400110822008E009B
:1002F0009529240011088E0095292400110820005A
:100300008E009529240011083D00A20095292400A3
:10031000110829009E0095292400110829009F003A
:100320009529240011082000B20024001516992AEE
:10033000240011362000B3002000C1012400141D48
:10034000992A2F30200033052000B000300803190F
:10035000062A3008043A03191C2A3008053A031902
:100360001C2A3008063A0319212A3008073A0319D3
:100370002A2A3008083A0319342A3008093A03199E
:10038000342A30080A3A0319392A30080B3A03197B
:10039000422A3008203A03194C2A3008213A03191E
:1003A000512A3008223A0319562A3008233A0319F1
:1003B0005A2A3008243A03195F2A3008253A0319CB
:1003C000642A3008263A0319692A3008273A0319A3
:1003D0006D2A3008283A0319722A3008293A03197D
:1003E000772A30082A3A03197C2A30082B3A031955
:1003F000802A30082C3A0319852A30082E3A03192E
:100400008A2A30082F3A03198F2A942A200041089B
:100410002000B0002000C10A20003008A03EB0003B
:100420000C300318013EB10030088400310885000B
:10043000000824009100972A200040082400910021
:10044000972A0130FF00083083317723823124005E
:100450009100972A0130FF00200042088331772362
:10046000823124009100972A200040082400910046
:10047000972A0030FF00083083317723823124002F
:100480009100972A0030FF00200042088331772333
:10049000823124009100972A21000C082400910049
:1004A000972A22000C0824009100972A24000C08A7
:1004B0009100972A20000C0824009100972A21001F
:1004C0000D0824009100972A22000D0824009100B5
:1004D000972A24000D089100972A20000D08240077
:1004E0009100972A21000E0824009100972A2200EB
:1004F0000E0824009100972A24000E089100972AE4
:1005000020000E0824009100972A3D0022082400B4
:100510009100972A29001E0824009100972A29009B
:100520001F0824009100972AA53024009100240080
:10053000151609007A30FE008430FF0080308431C7
:100540002B2482312000B5007F08B4007C30B60037
:100550008430B70020003408B8003508B900FF30F7
:10056000B407031CB503380839040319172B0430EA
:100570003607B800B901B90D3708B9073808FE00C9
:100580003908FF00803084312B2482312000BB00E9
:100590007F08BA003608FE003708FF00803084313B
:1005A0002B2482312000BD00B9007F08BC00B800B8
:1005B00002303607B800B901B90D3708B907380855
:1005C000FE003908FF00803084312B248231200066
:1005D000B900BF007F08B800BE0020003A08BE0086
:1005E0003B08BF00FF30BA07031CBB033E083F04B3
:1005F0000319112B3C08FE003D08FF0080308431B8
:10060000482483312000BE00380884003908850062
:100610003E088000BC0A0319BD0AB80A0319B90ACA
:10062000ED2A06302000B6070318B70AAA2A83313C
:10063000B92B08002000AB007F08AC007E08AD009D
:10064000AE0120008E1120002C03AF00AC002F085B
:100650000319492B200040352000AF002E04200054
:10066000C00020000E1120002B1C392B20008E14FE
:100670003B2B20008E102000AF0120000E1C422BCF
:100680002000AF0A20002F08AE00AB3620000E1568
:10069000232B200040352000AC002E042000C00099
:1006A00020000E1120002B1C582B20008E145A2BDA
:1006B00020008E102000AB0120000E1C612B2000BA
:1006C000AB0A20002B08AE002D0C0318692B20006C
:1006D0008E11031C6D2B20008E1520000E1520009E
:1006E00040352000AB002E042000C0000800200090
:1006F000A6007F08A700A801A90120008E112000F4
:100700002603AA00A6002A080319982BA835200062
:100710000E1120002908A804AA0120000E1C922B0B
:100720002000AA0A20002A08A90020000E157F2B0D
:100730002000A83520000E1120002908A804A601D9
:1007400020000E1CA52B2000A60A20002608A900C8
:10075000270C0318AD2B20008E11031CB12B200099
:100760008E1520000E1520002835A6002904A800AB
:100770000800210099171908873970389900FC3949
:10078000990023008C018D018E0121000D178D171A
:100790003C000F100F30A10011303D009F000E30C3
:1007A0003C00A00010303D009E0024009417141758
:1007B0001508F0390638950095161516960116108D
:1007C0009701171680309200A030930029009D01F8
:1007D00080309C009B01A0309E00200091112100E0
:1007E000911520000B178B17F42B08002000A20096
:1007F0007F08A3007E08A40020008E1120002303A0
:10080000A500A30025080319142C20000E112000B8
:10081000221C0D2C20008E140F2C20008E10200086
:10082000A23620000E15FE2B20000E112000221CE7
:100830001C2C20008E141E2C20008E102000240C56
:100840000318242C20008E11031C282C20008E1548
:1008500020000E150800003A0319332C803A0319C2
:100860003B2CFF0100347E0884007F0885001200C5
:10087000FF000008080084315524FD00FE0FFF032F
:10088000FF0A84315524FC007D08FF007C08080025
:10089000003A03194F2C803A0319552C00347E0876
:1008A00084007F088500000808007F088A007E0811
:1008B0008200080000340034003400340034003476
:1008C0000034003400340034003400340034003488
:1008D0000034003400340034003400340034003478
:1008E0000034003400340034003400340034003468
:1008F00000340034053400345A340434A0340C3449
:1009000020340034033400344034003401340034E3
:10091000B53404344134003401340034B634043482
:100920004234003401340034B734043443340034E6
:10093000013400342000A0007F08A1000030200016
:1009400021040319B42C20000E112000201CAB2C14
:1009500020008E15AD2C20008E112000A036200026
:100960000E152000A1039E2C080000340034003432
:020000040001F9
:02000E00E43FCD
:02001000FB33C0
:00000001FF
